{"abi":[{"type":"constructor","inputs":[{"name":"_owners","type":"address[]","internalType":"address[]"},{"name":"_required","type":"uint256","internalType":"uint256"}],"stateMutability":"nonpayable"},{"type":"receive","stateMutability":"payable"},{"type":"function","name":"confirmTransaction","inputs":[{"name":"_txIndex","type":"uint256","internalType":"uint256"}],"outputs":[],"stateMutability":"nonpayable"},{"type":"function","name":"executeTransaction","inputs":[{"name":"_txIndex","type":"uint256","internalType":"uint256"}],"outputs":[],"stateMutability":"nonpayable"},{"type":"function","name":"isConfirmed","inputs":[{"name":"","type":"uint256","internalType":"uint256"},{"name":"","type":"address","internalType":"address"}],"outputs":[{"name":"","type":"bool","internalType":"bool"}],"stateMutability":"view"},{"type":"function","name":"isOwner","inputs":[{"name":"","type":"address","internalType":"address"}],"outputs":[{"name":"","type":"bool","internalType":"bool"}],"stateMutability":"view"},{"type":"function","name":"owners","inputs":[{"name":"","type":"uint256","internalType":"uint256"}],"outputs":[{"name":"","type":"address","internalType":"address"}],"stateMutability":"view"},{"type":"function","name":"required","inputs":[],"outputs":[{"name":"","type":"uint256","internalType":"uint256"}],"stateMutability":"view"},{"type":"function","name":"submitTransaction","inputs":[{"name":"_to","type":"address","internalType":"address"},{"name":"_value","type":"uint256","internalType":"uint256"},{"name":"_data","type":"bytes","internalType":"bytes"}],"outputs":[],"stateMutability":"nonpayable"},{"type":"function","name":"transactions","inputs":[{"name":"","type":"uint256","internalType":"uint256"}],"outputs":[{"name":"to","type":"address","internalType":"address"},{"name":"value","type":"uint256","internalType":"uint256"},{"name":"data","type":"bytes","internalType":"bytes"},{"name":"executed","type":"bool","internalType":"bool"},{"name":"numConfirmations","type":"uint256","internalType":"uint256"}],"stateMutability":"view"},{"type":"event","name":"ConfirmTransaction","inputs":[{"name":"owner","type":"address","indexed":true,"internalType":"address"},{"name":"txIndex","type":"uint256","indexed":true,"internalType":"uint256"}],"anonymous":false},{"type":"event","name":"Deposit","inputs":[{"name":"sender","type":"address","indexed":true,"internalType":"address"},{"name":"amount","type":"uint256","indexed":false,"internalType":"uint256"},{"name":"balance","type":"uint256","indexed":false,"internalType":"uint256"}],"anonymous":false},{"type":"event","name":"ExecuteTransaction","inputs":[{"name":"owner","type":"address","indexed":true,"internalType":"address"},{"name":"txIndex","type":"uint256","indexed":true,"internalType":"uint256"}],"anonymous":false},{"type":"event","name":"SubmitTransaction","inputs":[{"name":"owner","type":"address","indexed":true,"internalType":"address"},{"name":"txIndex","type":"uint256","indexed":true,"internalType":"uint256"},{"name":"to","type":"address","indexed":true,"internalType":"address"},{"name":"value","type":"uint256","indexed":false,"internalType":"uint256"},{"name":"data","type":"bytes","indexed":false,"internalType":"bytes"}],"anonymous":false}],"bytecode":{"object":"0x608060405234801561000f575f5ffd5b50604051611d82380380611d82833981810160405281019061003191906104a5565b5f825111610074576040517f08c379a000000000000000000000000000000000000000000000000000000000815260040161006b90610559565b60405180910390fd5b5f81118015610084575081518111155b6100c3576040517f08c379a00000000000000000000000000000000000000000000000000000000081526004016100ba906105c1565b60405180910390fd5b5f5f90505b82518110156102a8575f8382815181106100e5576100e46105df565b5b602002602001015190505f73ffffffffffffffffffffffffffffffffffffffff168173ffffffffffffffffffffffffffffffffffffffff160361015d576040517f08c379a000000000000000000000000000000000000000000000000000000000815260040161015490610656565b60405180910390fd5b60015f8273ffffffffffffffffffffffffffffffffffffffff1673ffffffffffffffffffffffffffffffffffffffff1681526020019081526020015f205f9054906101000a900460ff16156101e7576040517f08c379a00000000000000000000000000000000000000000000000000000000081526004016101de906106be565b60405180910390fd5b6001805f8373ffffffffffffffffffffffffffffffffffffffff1673ffffffffffffffffffffffffffffffffffffffff1681526020019081526020015f205f6101000a81548160ff0219169083151502179055505f81908060018154018082558091505060019003905f5260205f20015f9091909190916101000a81548173ffffffffffffffffffffffffffffffffffffffff021916908373ffffffffffffffffffffffffffffffffffffffff1602179055505080806001019150506100c8565b508060028190555050506106dc565b5f604051905090565b5f5ffd5b5f5ffd5b5f5ffd5b5f601f19601f8301169050919050565b7f4e487b71000000000000000000000000000000000000000000000000000000005f52604160045260245ffd5b610312826102cc565b810181811067ffffffffffffffff82111715610331576103306102dc565b5b80604052505050565b5f6103436102b7565b905061034f8282610309565b919050565b5f67ffffffffffffffff82111561036e5761036d6102dc565b5b602082029050602081019050919050565b5f5ffd5b5f73ffffffffffffffffffffffffffffffffffffffff82169050919050565b5f6103ac82610383565b9050919050565b6103bc816103a2565b81146103c6575f5ffd5b50565b5f815190506103d7816103b3565b92915050565b5f6103ef6103ea84610354565b61033a565b905080838252602082019050602084028301858111156104125761041161037f565b5b835b8181101561043b578061042788826103c9565b845260208401935050602081019050610414565b5050509392505050565b5f82601f830112610459576104586102c8565b5b81516104698482602086016103dd565b91505092915050565b5f819050919050565b61048481610472565b811461048e575f5ffd5b50565b5f8151905061049f8161047b565b92915050565b5f5f604083850312156104bb576104ba6102c0565b5b5f83015167ffffffffffffffff8111156104d8576104d76102c4565b5b6104e485828601610445565b92505060206104f585828601610491565b9150509250929050565b5f82825260208201905092915050565b7f53652072657175696572656e206475656e6f73000000000000000000000000005f82015250565b5f6105436013836104ff565b915061054e8261050f565b602082019050919050565b5f6020820190508181035f83015261057081610537565b9050919050565b7f4e756d65726f206465206669726d617320696e76616c69646f000000000000005f82015250565b5f6105ab6019836104ff565b91506105b682610577565b602082019050919050565b5f6020820190508181035f8301526105d88161059f565b9050919050565b7f4e487b71000000000000000000000000000000000000000000000000000000005f52603260045260245ffd5b7f4475656e696f20696e76616c69646f2028646972656363696f6e206365726f295f82015250565b5f6106406020836104ff565b915061064b8261060c565b602082019050919050565b5f6020820190508181035f83015261066d81610634565b9050919050565b7f4475656e696f206475706c696361646f000000000000000000000000000000005f82015250565b5f6106a86010836104ff565b91506106b382610674565b602082019050919050565b5f6020820190508181035f8301526106d58161069c565b9050919050565b611699806106e95f395ff3fe60806040526004361061007e575f3560e01c8063c01a8c841161004d578063c01a8c84146101cd578063c6427474146101f5578063dc8452cd1461021d578063ee22610b14610247576100d5565b8063025e7c27146100d95780632f54bf6e1461011557806380f59a65146101515780639ace38c21461018d576100d5565b366100d5573373ffffffffffffffffffffffffffffffffffffffff167f90890809c654f11d6e72a28fa60149770a0d11ec6c92319d6ceb2bb0a4ea1a1534476040516100cb929190610bed565b60405180910390a2005b5f5ffd5b3480156100e4575f5ffd5b506100ff60048036038101906100fa9190610c46565b61026f565b60405161010c9190610cb0565b60405180910390f35b348015610120575f5ffd5b5061013b60048036038101906101369190610cf3565b6102a9565b6040516101489190610d38565b60405180910390f35b34801561015c575f5ffd5b5061017760048036038101906101729190610d51565b6102c6565b6040516101849190610d38565b60405180910390f35b348015610198575f5ffd5b506101b360048036038101906101ae9190610c46565b6102f0565b6040516101c4959493929190610dff565b60405180910390f35b3480156101d8575f5ffd5b506101f360048036038101906101ee9190610c46565b6103e2565b005b348015610200575f5ffd5b5061021b60048036038101906102169190610eb8565b6106ab565b005b348015610228575f5ffd5b506102316108e7565b60405161023e9190610f29565b60405180910390f35b348015610252575f5ffd5b5061026d60048036038101906102689190610c46565b6108ed565b005b5f818154811061027d575f80fd5b905f5260205f20015f915054906101000a900473ffffffffffffffffffffffffffffffffffffffff1681565b6001602052805f5260405f205f915054906101000a900460ff1681565b6004602052815f5260405f20602052805f5260405f205f915091509054906101000a900460ff1681565b600381815481106102ff575f80fd5b905f5260205f2090600502015f91509050805f015f9054906101000a900473ffffffffffffffffffffffffffffffffffffffff169080600101549080600201805461034990610f6f565b80601f016020809104026020016040519081016040528092919081815260200182805461037590610f6f565b80156103c05780601f10610397576101008083540402835291602001916103c0565b820191905f5260205f20905b8154815290600101906020018083116103a357829003601f168201915b505050505090806003015f9054906101000a900460ff16908060040154905085565b60015f3373ffffffffffffffffffffffffffffffffffffffff1673ffffffffffffffffffffffffffffffffffffffff1681526020019081526020015f205f9054906101000a900460ff1661046b576040517f08c379a000000000000000000000000000000000000000000000000000000000815260040161046290610ff9565b60405180910390fd5b8060038054905081106104b3576040517f08c379a00000000000000000000000000000000000000000000000000000000081526004016104aa90611061565b60405180910390fd5b81600381815481106104c8576104c761107f565b5b905f5260205f2090600502016003015f9054906101000a900460ff1615610524576040517f08c379a000000000000000000000000000000000000000000000000000000000815260040161051b906110f6565b60405180910390fd5b8260045f8281526020019081526020015f205f3373ffffffffffffffffffffffffffffffffffffffff1673ffffffffffffffffffffffffffffffffffffffff1681526020019081526020015f205f9054906101000a900460ff16156105be576040517f08c379a00000000000000000000000000000000000000000000000000000000081526004016105b59061115e565b60405180910390fd5b5f600385815481106105d3576105d261107f565b5b905f5260205f20906005020190506001816004015f8282546105f591906111a9565b92505081905550600160045f8781526020019081526020015f205f3373ffffffffffffffffffffffffffffffffffffffff1673ffffffffffffffffffffffffffffffffffffffff1681526020019081526020015f205f6101000a81548160ff021916908315150217905550843373ffffffffffffffffffffffffffffffffffffffff167f5cbe105e36805f7820e291f799d5794ff948af2a5f664e580382defb6339004160405160405180910390a35050505050565b60015f3373ffffffffffffffffffffffffffffffffffffffff1673ffffffffffffffffffffffffffffffffffffffff1681526020019081526020015f205f9054906101000a900460ff16610734576040517f08c379a000000000000000000000000000000000000000000000000000000000815260040161072b90610ff9565b60405180910390fd5b5f600380549050905060036040518060a001604052808773ffffffffffffffffffffffffffffffffffffffff16815260200186815260200185858080601f0160208091040260200160405190810160405280939291908181526020018383808284375f81840152601f19601f8201169050808301925050505050505081526020015f151581526020015f815250908060018154018082558091505060019003905f5260205f2090600502015f909190919091505f820151815f015f6101000a81548173ffffffffffffffffffffffffffffffffffffffff021916908373ffffffffffffffffffffffffffffffffffffffff16021790555060208201518160010155604082015181600201908161084a91906113ba565b506060820151816003015f6101000a81548160ff0219169083151502179055506080820151816004015550508473ffffffffffffffffffffffffffffffffffffffff16813373ffffffffffffffffffffffffffffffffffffffff167fd5a05bf70715ad82a09a756320284a1b54c9ff74cd0f8cce6219e79b563fe59d8787876040516108d8939291906114c3565b60405180910390a45050505050565b60025481565b60015f3373ffffffffffffffffffffffffffffffffffffffff1673ffffffffffffffffffffffffffffffffffffffff1681526020019081526020015f205f9054906101000a900460ff16610976576040517f08c379a000000000000000000000000000000000000000000000000000000000815260040161096d90610ff9565b60405180910390fd5b8060038054905081106109be576040517f08c379a00000000000000000000000000000000000000000000000000000000081526004016109b590611061565b60405180910390fd5b81600381815481106109d3576109d261107f565b5b905f5260205f2090600502016003015f9054906101000a900460ff1615610a2f576040517f08c379a0000000000000000000000000000000000000000000000000000000008152600401610a26906110f6565b60405180910390fd5b5f60038481548110610a4457610a4361107f565b5b905f5260205f209060050201905060025481600401541015610a9b576040517f08c379a0000000000000000000000000000000000000000000000000000000008152600401610a929061153d565b60405180910390fd5b6001816003015f6101000a81548160ff0219169083151502179055505f815f015f9054906101000a900473ffffffffffffffffffffffffffffffffffffffff1673ffffffffffffffffffffffffffffffffffffffff16826001015483600201604051610b0791906115e5565b5f6040518083038185875af1925050503d805f8114610b41576040519150601f19603f3d011682016040523d82523d5f602084013e610b46565b606091505b5050905080610b8a576040517f08c379a0000000000000000000000000000000000000000000000000000000008152600401610b8190611645565b60405180910390fd5b843373ffffffffffffffffffffffffffffffffffffffff167f5445f318f4f5fcfb66592e68e0cc5822aa15664039bd5f0ffde24c5a8142b1ac60405160405180910390a35050505050565b5f819050919050565b610be781610bd5565b82525050565b5f604082019050610c005f830185610bde565b610c0d6020830184610bde565b9392505050565b5f5ffd5b5f5ffd5b610c2581610bd5565b8114610c2f575f5ffd5b50565b5f81359050610c4081610c1c565b92915050565b5f60208284031215610c5b57610c5a610c14565b5b5f610c6884828501610c32565b91505092915050565b5f73ffffffffffffffffffffffffffffffffffffffff82169050919050565b5f610c9a82610c71565b9050919050565b610caa81610c90565b82525050565b5f602082019050610cc35f830184610ca1565b92915050565b610cd281610c90565b8114610cdc575f5ffd5b50565b5f81359050610ced81610cc9565b92915050565b5f60208284031215610d0857610d07610c14565b5b5f610d1584828501610cdf565b91505092915050565b5f8115159050919050565b610d3281610d1e565b82525050565b5f602082019050610d4b5f830184610d29565b92915050565b5f5f60408385031215610d6757610d66610c14565b5b5f610d7485828601610c32565b9250506020610d8585828601610cdf565b9150509250929050565b5f81519050919050565b5f82825260208201905092915050565b8281835e5f83830152505050565b5f601f19601f8301169050919050565b5f610dd182610d8f565b610ddb8185610d99565b9350610deb818560208601610da9565b610df481610db7565b840191505092915050565b5f60a082019050610e125f830188610ca1565b610e1f6020830187610bde565b8181036040830152610e318186610dc7565b9050610e406060830185610d29565b610e4d6080830184610bde565b9695505050505050565b5f5ffd5b5f5ffd5b5f5ffd5b5f5f83601f840112610e7857610e77610e57565b5b8235905067ffffffffffffffff811115610e9557610e94610e5b565b5b602083019150836001820283011115610eb157610eb0610e5f565b5b9250929050565b5f5f5f5f60608587031215610ed057610ecf610c14565b5b5f610edd87828801610cdf565b9450506020610eee87828801610c32565b935050604085013567ffffffffffffffff811115610f0f57610f0e610c18565b5b610f1b87828801610e63565b925092505092959194509250565b5f602082019050610f3c5f830184610bde565b92915050565b7f4e487b71000000000000000000000000000000000000000000000000000000005f52602260045260245ffd5b5f6002820490506001821680610f8657607f821691505b602082108103610f9957610f98610f42565b5b50919050565b5f82825260208201905092915050565b7f4e6f2065726573206475656e6f206465206573746120626f76656461000000005f82015250565b5f610fe3601c83610f9f565b9150610fee82610faf565b602082019050919050565b5f6020820190508181035f83015261101081610fd7565b9050919050565b7f4c61207472616e73616363696f6e206e6f2065786973746500000000000000005f82015250565b5f61104b601883610f9f565b915061105682611017565b602082019050919050565b5f6020820190508181035f8301526110788161103f565b9050919050565b7f4e487b71000000000000000000000000000000000000000000000000000000005f52603260045260245ffd5b7f4c61207472616e73616363696f6e20796120736520656a656375746f000000005f82015250565b5f6110e0601c83610f9f565b91506110eb826110ac565b602082019050919050565b5f6020820190508181035f83015261110d816110d4565b9050919050565b7f5961206669726d617374652065737461207472616e73616363696f6e000000005f82015250565b5f611148601c83610f9f565b915061115382611114565b602082019050919050565b5f6020820190508181035f8301526111758161113c565b9050919050565b7f4e487b71000000000000000000000000000000000000000000000000000000005f52601160045260245ffd5b5f6111b382610bd5565b91506111be83610bd5565b92508282019050808211156111d6576111d561117c565b5b92915050565b7f4e487b71000000000000000000000000000000000000000000000000000000005f52604160045260245ffd5b5f819050815f5260205f209050919050565b5f6020601f8301049050919050565b5f82821b905092915050565b5f600883026112657fffffffffffffffffffffffffffffffffffffffffffffffffffffffffffffffff8261122a565b61126f868361122a565b95508019841693508086168417925050509392505050565b5f819050919050565b5f6112aa6112a56112a084610bd5565b611287565b610bd5565b9050919050565b5f819050919050565b6112c383611290565b6112d76112cf826112b1565b848454611236565b825550505050565b5f5f905090565b6112ee6112df565b6112f98184846112ba565b505050565b5f5b8281101561131f576113145f8284016112e6565b600181019050611300565b505050565b601f82111561137257828211156113715761133e81611209565b6113478361121b565b6113508561121b565b602086101561135d575f90505b80830161136c828403826112fe565b505050505b5b505050565b5f82821c905092915050565b5f6113925f1984600802611377565b1980831691505092915050565b5f6113aa8383611383565b9150826002028217905092915050565b6113c382610d8f565b67ffffffffffffffff8111156113dc576113db6111dc565b5b6113e68254610f6f565b6113f1828285611324565b5f60209050601f831160018114611422575f8415611410578287015190505b61141a858261139f565b865550611481565b601f19841661143086611209565b5f5b8281101561145757848901518255600182019150602085019450602081019050611432565b868310156114745784890151611470601f891682611383565b8355505b6001600288020188555050505b505050505050565b828183375f83830152505050565b5f6114a28385610d99565b93506114af838584611489565b6114b883610db7565b840190509392505050565b5f6040820190506114d65f830186610bde565b81810360208301526114e9818486611497565b9050949350505050565b7f4e6f2068617920737566696369656e746573206669726d6173000000000000005f82015250565b5f611527601983610f9f565b9150611532826114f3565b602082019050919050565b5f6020820190508181035f8301526115548161151b565b9050919050565b5f81905092915050565b5f815461157181610f6f565b61157b818661155b565b9450600182165f811461159557600181146115aa576115dc565b60ff19831686528115158202860193506115dc565b6115b385611209565b5f5b838110156115d4578154818901526001820191506020810190506115b5565b838801955050505b50505092915050565b5f6115f08284611565565b915081905092915050565b7f46616c6c6f20616c20656e76696172206c61207472616e73616363696f6e00005f82015250565b5f61162f601e83610f9f565b915061163a826115fb565b602082019050919050565b5f6020820190508181035f83015261165c81611623565b905091905056fea2646970667358221220c2b7e8edfaaf62ad814594d40d1e0a7691dab2425e2a0e1eed3f943a1248f08464736f6c63430008220033","linkReferences":{}},"methodIdentifiers":{"confirmTransaction(uint256)":"c01a8c84","executeTransaction(uint256)":"ee22610b","isConfirmed(uint256,address)":"80f59a65","isOwner(address)":"2f54bf6e","owners(uint256)":"025e7c27","required()":"dc8452cd","submitTransaction(address,uint256,bytes)":"c6427474","transactions(uint256)":"9ace38c2"},"id":0}